:100000000C94F5050C9439060C9439060C943906B9
:100010000C9439060C9439060C9439060C94390664
:100020000C9439060C9439060C94490E0C940D0E60
:100030000C94C21C0C9439060C9439060C943906A5
:100040000C9439060C9439060C9439060C94390634
:100050000C9439060C94521D0C9439060C943906F4
:100060000C9439060C9439060C9439060C94390614
:100070000C9439060C9439060C9439060C94390604
:100080000C9439060C9439060C9439060C943906F4
:100090000C9439060C9439060C9439060C943906E4
:1000A0000C9439060C9439060C94390629312BE14D
:1000B000E0241E2BE1E2251F14041D26201A161B26
:1000C00027210807062D221509192E23170A052AAC
:1000D0000C0D2810C3C2C12CC0000000000001009C
:1000E000010101403A010101413B004F00423C52F5
:1000F0005100433D005000443E4B4E00453F4A4DA9
:1001000000010000010001010101010000000000E8
:1001100001000101010000010101FDF7F5F2FBFE04
:10012000F6F0F100FFF8F4F3FC0000F9FA0000A883
:10013000A9AA000100000100010101010100000065
:1001400000000100010101000001010100000000A8
:10015000000000000000000000000000000000009F
:100160000000000000010000010001010101010088
:1001700000000000F1A1F1A2F1A1F1A20A002530D6
:10018000313662003A200025303258000A722F635F
:1001900020303132333435363738394142434445E3
:1001A000460A000A002530325800626F756E63659A
:1001B000213A20005B735D004B6579626F61726468
:1001C0002073746172742E0A0055534220636F6E5F
:1001D000666967757265642E0A005B575D005B5344
:1001E0005D005B525D005B445D005B435D000501AB
:1001F0000906A101050719E029E715002501950861
:10020000750181029501750881010508190129050B
:100210009505750191029501750391010507190076
:1002200029FF150025FF950675088100C005010905
:1002300002A1010901A100050919012905150025DF
:10024000019505750181029501750381010501097B
:100250003009311581257F95027508810609381509
:1002600081257F950175088106050C0A38021581E4
:10027000257F950175088106C0C005010980A1018F
:10028000850216010026B7001A01002AB700751072
:1002900095018100C0050C0901A10185031601002B
:1002A000269C021A01002A9C02751095018100C04B
:1002B0000631FF0974A1010975150025FF95207508
:1002C0000881020976150025FF952075089102C066
:1002D00005010906A101050719E029E71500250117
:1002E0009508750181020508190129059505750113
:1002F00091029501750391010507190029771500F1
:100300002501957875018102C012011001000000DD
:1003100008EDFE606001000102000109028D000588
:100320000100A032090400000103010100092111AC
:10033000010001223F000705810308000A090401AA
:10034000000103010200092111010001224D0007F3
:1003500005820308000A09040200010300000009E5
:1003600021110100012236000705830308000A0954
:1003700004030002030000000921110100012220F2
:10038000000705840320000107050403200001097C
:1003900004040001030000000921110100012239B9
:1003A0000007058503100001040309040803540035
:1003B0004D004B00000014035600650078004B0010
:1003C0006500790070006100640000000A002530BB
:1003D000325820006B6579626F6172645F7265707C
:1003E0006F72743A20000A0025303258006B65792C
:1003F000626F6172645F7365745F6C65643A20005C
:1004000064656C5F6B65795F6269743A2063616EE5
:1004100027742064656C3A20253032580A006164E4
:10042000645F6B65795F6269743A2063616E2774FB
:10043000206164643A20253032580A00646F6E658A
:100440002E0A00626F6F746D616769632073636168
:100450006E3A202E2E2E2000290A002575002F002E
:100460002575005D2800256400200025640020001B
:1004700025640020002564007C0025303258006D82
:100480006F7573656B6579205B62746E7C7820791B
:10049000207620685D287265702F61636C293A2090
:1004A0005B003F004E4B524F3A206F66660A004E8B
:1004B0004B524F3A206F6E0A0074696D65725F721D
:1004C000656164333228293A202530346C580A009B
:1004D0006B6579626F6172645F6E6B726F3A202533
:1004E000580A006B6579626F6172645F69646C655C
:1004F0003A2025580A006B6579626F6172645F70FB
:10050000726F746F636F6C3A2025580A00686F73BE
:10051000745F6B6579626F6172645F6C6564732888
:10052000293A2025580A000A092D20537461747550
:1005300073202D0A004743433A20342E332E3320B4
:100540004156522D4C4942433A20312E362E372007
:100550004156525F415243483A20617672350A0053
:100560004F5054494F4E533A204C55464120424F2C
:100570004F544D41474943204D4F5553454B4559E5
:100580002045585452414B455920434F4E534F4CF0
:100590004520434F4D4D414E44204E4B524F203449
:1005A0003039360A004255494C443A2035613261AF
:1005B0003738312D6469727479202831323A3231FA
:1005C0003A343520417072203131203230313629B1
:1005D0000A005649443A2030784645454428544D4F
:1005E0004B29205049443A2030783630363028564E
:1005F00065784B657970616429205645523A203000
:1006000078303030310A00444553433A20742E6D1F
:100610002E6B2E206B6579626F6172642066697241
:100620006D7761726520666F72205665784B6579CB
:100630007061640A000A092D2056657273696F6E35
:10064000202D0A000A6D6F7573653A206F66660A81
:10065000000A6D6F7573653A206F6E0A000A6B654C
:1006600079626F6172643A206F66660A000A6B6590
:1006700079626F6172643A206F6E0A000A6D61746C
:100680007269783A206F66660A000A6D6174726951
:10069000783A206F6E0A000A64656275673A206FC7
:1006A0006E0A000A64656275673A206F66660A0022
:1006B0000A0A626F6F746C6F616465722E2E2E2051
:1006C00000433E20006565636F6E6669673A0A0005
:1006D0000A002575002E6E6B726F3A20000A002505
:1006E00075002E737761705F6261636B736C617309
:1006F000685F6261636B73706163653A20000A0032
:100700002575002E737761705F67726176655F652E
:1007100073633A20000A002575002E6E6F5F6775BF
:10072000693A20000A002575002E737761705F72A8
:10073000616C745F726775693A20000A0025750064
:100740002E737761705F6C616C745F6C6775693A6A
:1007500020000A002575002E636170736C6F636B57
:100760005F746F5F636F6E74726F6C3A20000A0083
:100770002575002E737761705F636F6E74726F6C96
:100780005F636170736C6F636B3A20000A00253001
:100790003258006B65796D61705F636F6E66696773
:1007A0002E7261773A20000A002575002E6D6F7554
:1007B00073653A20000A002575002E6B6579626F1B
:1007C0006172643A20000A002575002E6D61747212
:1007D00069783A20000A002575002E656E61626C0A
:1007E000653A20000A00253032580064656275675A
:1007F0005F636F6E6669672E7261773A20000A0048
:1008000025750064656661756C745F6C61796572ED
:100810003A20000A092D204D61676963202D0A6482
:100820003A0964656275670A783A096465627567B2
:10083000206D61747269780A6B3A09646562756744
:10084000206B6579626F6172640A6D3A0964656252
:100850007567206D6F7573650A763A0976657273F0
:10086000696F6E0A733A097374617475730A633A37
:1008700009636F6E736F6C65206D6F64650A302D50
:10088000343A096C61796572302D34284631302D47
:100890004634290A506175733A09626F6F746C6F40
:1008A000616465720A653A09656570726F6D0A6EFA
:1008B0003A094E4B524F0A000A092D20436F6E73BE
:1008C0006F6C65202D0A4553432F713A0971756984
:1008D000740A6D3A096D6F7573656B65790A004C22
:1008E00025640A00433E20003F004D3E200077680B
:1008F0006572652064656C74613A20637572736F0C
:10090000723D25642C20776865656C3D25640A532B
:10091000656520687474703A2F2F656E2E77696B49
:100920006970656469612E6F72672F77696B692FD3
:100930004D6F7573655F6B6579730A000A092D2029
:100940004D6F7573656B6579202D0A4553432F7183
:100950003A09717569740A313A0964656C617928DC
:100960002A31306D73290A323A09696E74657276DC
:10097000616C286D73290A333A096D61785F737071
:100980006565640A343A0974696D655F746F5F6DFB
:1009900061780A353A09776865656C5F6D61785FE3
:1009A00073706565640A363A09776865656C5F74CB
:1009B000696D655F746F5F6D61780A0A703A0970DE
:1009C00072696E742076616C7565730A643A097396
:1009D00065742064656661756C74730A75703A0994
:1009E0002B310A646F776E3A092D310A7067757082
:1009F0003A092B31300A7067646F776E3A092D31EE
:100A0000300A0A7370656564203D2064656C74610A
:100A1000202A206D61785F7370656564202A202824
:100A2000726570656174202F2074696D655F746FE5
:100A30005F6D6178290A004D3E004D25643E20001F
:100A40003F007365742064656661756C740A0043C9
:100A50003E20000A00257500363A20776865656CEF
:100A60005F74696D655F746F5F6D61783A20000A2D
:100A700000257500353A20776865656C5F6D617893
:100A80005F73706565643A20000A00257500343A8A
:100A90002074696D655F746F5F6D61783A20000A3C
:100AA00000257500333A206D61785F737065656469
:100AB0003A20000A00257500323A20696E7465728A
:100AC00076616C286D73293A20000A002575003183
:100AD0003A2064656C6179282A31306D73293A2097
:100AE000000A092D2056616C756573202D0A006D72
:100AF0006B5F776865656C5F74696D655F746F5F68
:100B00006D6178203D2025640A006D6B5F77686514
:100B1000656C5F6D61785F7370656564203D20254D
:100B2000640A006D6B5F74696D655F746F5F6D6102
:100B300078203D2025640A006D6B5F6D61785F73DE
:100B400070656564203D2025640A006D6B5F696EE9
:100B500074657276616C203D2025640A006D6B5FC0
:100B600064656C6179203D2025640A006D6B5F77B8
:100B70006865656C5F74696D655F746F5F6D6178E2
:100B8000203D2025640A006D6B5F776865656C5FAA
:100B90006D61785F7370656564203D2025640A008F
:100BA0006D6B5F74696D655F746F5F6D6178203D1B
:100BB0002025640A006D6B5F6D61785F73706565F9
:100BC00064203D2025640A006D6B5F696E74657258
:100BD00076616C203D2025640A006D6B5F64656C56
:100BE0006179203D2025640A000011241FBECFEF4B
:100BF000DAE0DEBFCDBF04B603FE24C08091C4019D
:100C00009091C501A091C601B091C7018750904B4A
:100C1000A740B04BB9F41092C4011092C5011092D4
:100C2000C6011092C70114BE84B7877F84BF88E1D4
:100C30000FB6F89480936000109260000FBEE0E061
:100C4000F8E3099511E0A0E0B1E0EEECF8E502C0B0
:100C500005900D92A631B107D9F711E0A6E1B1E0F8
:100C600001C01D92A43CB107E1F70E94170A0C9441
:100C7000652C0C940000FF93EF93E0911601F09126
:100C80001701309709F00995EF91FF910895FC0144
:100C90008591803011F0EFDFFBCF0895FF27E0E270
:100CA00030E247FF0CC0419597FF09C0EDE2609527
:100CB000709580959095611D711D811D911D27FF77
:100CC00002C0219530E350E2AA27660F771F881FE4
:100CD000991FAA1FA41710F0A41B63955A95A9F792
:100CE000AA3008F0A95FA05DAF93F3956115710577
:100CF0008105910541F7ED3211F4EF93F395F21769
:100D000018F43F93F395FBCF8F91B5DFFA95E1F798
:100D10000895E991F9918591803021F0853219F09B
:100D2000AADFF9CF089520E0E89455915532C1F338
:100D3000503311F4689455915A3348F4505390F35A
:100D4000220F022E220F220F200D250FF4CF0EF4BA
:100D5000219589919991533619F3533729F15335D8
:100D600059F1BC0188279927E8945C3621F48991D0
:100D7000999168945591543639F446EF7EF077FF97
:100D80000DC08FEF9FEF0AC055374AE039F0583554
:100D900040E121F0523642E009F00895FF93EF93CD
:100DA0007DDFEF91FF91B7CFFF93EF93FC0181912E
:100DB0008030B9F360DFFBCFFF93EF9368DFF1CFB3
:100DC000DF93CF93CDB7DEB72596A3DFCF91DF9129
:100DD000089595E0799FF0011124E60FF11D92E34B
:100DE000899FC0011124E80FF91FE455FF4FE491DA
:100DF0008E2F0895E82FF0E0EE0FFF1FEC50F0402B
:100E000025913491C9010895E8E1F1E0E80FF11D61
:100E10008081089580B38C7880BB81B38C7881BB4E
:100E200008950E940A0780B38C7F80BB81B38360E2
:100E300081BB6E98769A8AB18F728AB98BB1806DB8
:100E40008BB987B18F7387B988B1806C88B984B149
:100E5000847884B985B18B6785B980E090E0FC0126
:100E6000E85EFE4F1082FC01EE5DFE4F108201969F
:100E70008A309105A1F70895BF92CF92DF92EF9249
:100E8000FF920F931F93CF93DF93C2E2D1E010E064
:100E900020EAB22E91E0C92ED12C05E085EAE82E99
:100EA00081E0F82E123091F0133028F4112341F034
:100EB0001130A1F408C0133061F0143079F40CC083
:100EC000809A88980BC0819A899808C0849A8C98D7
:100ED00005C0859A8D9802C0869A8E988B2D8A952A
:100EE000F1F789B186B193B1199902C072E001C0DE
:100EF00070E01A9902C064E001C060E01B9902C072
:100F000058E001C050E083B18095881F8827881F72
:100F10008295807F489902C040E201C040E0499933
:100F200002C030E401C030E04A9902C020E801C0AC
:100F300020E09C259170972B962B952B982B942B2A
:100F4000932B922B8881891781F1988380910001DE
:100F5000882349F18091A50180FF04C08AEA91E0CD
:100F60000E9447068091A50180FF15C000D000D0E7
:100F7000EDB7FEB73196ADB7BEB71296FC92EE92C2
:100F8000119780910001828313820E94E0060F90E6
:100F90000F900F900F908091A50180FF04C083EA0D
:100FA00091E00E944706009300010E940A071F5F1C
:100FB00021961A3009F076CF809100018823C9F07C
:100FC000815080930001882329F080EA9FE00197F7
:100FD000F1F70FC020E030E0F901E85EFE4FD901E3
:100FE000AE5DBE4F8C9180832F5F3F4F2A3031051D
:100FF00099F781E0DF91CF911F910F91FF90EF90D2
:10100000DF90CF90BF900895EF92FF920F931F93C0
:10101000CF93DF938CE891E00E944706C0E0D0E0D8
:1010200037E8E32E31E0F32E0EE711E000D000D0D8
:10103000EDB7FEB7F282E182D483C3830E94E0065B
:101040000F900F900F900F9084E891E00E94470658
:10105000FE01E85EFE4F808190E00E94871C00D078
:1010600000D0EDB7FEB712830183948383830E947F
:10107000E0060F900F900F900F908CE791E00E9488
:1010800047062196CA30D10589F6DF91CF911F918D
:101090000F91FF90EF90089580FF02C0249A01C045
:1010A00024982C9881FF02C0259A01C025982D987C
:1010B00082FF02C0269A01C026982E98089580913A
:1010C00030018F5F8093300162E30E94012C9923ED
:1010D000A9F51092300180912E01882379F1809139
:1010E000BA01843049F59091E9008091EC0080FDCF
:1010F00002C080E001C080E89F70982B84E080935C
:10110000E9008091EB0080FF14C08091EE0087FD24
:1011100003C00FC01092F1008091E80085FDFACF66
:101120008091E80080FF05C08091E8008E77809371
:10113000E8009F709093E90010922E01089580912D
:101140002D010895682F8FB7F89410922E018FBF4C
:101150008091BA01843011F08FEF08959091E900E9
:101160008091EC0080FD02C080E001C080E8392F52
:101170003F70382B84E08093E9008091EB0080FF82
:1011800043C08091EE0087FF3FC080912F018823EC
:1011900021F08091E80085FF37C010922F0125E0F3
:1011A00040EA5FE012C08091BA01843069F5809115
:1011B000EB0085FD29C0222321F481E080932F01DB
:1011C00023C02150CA010197F1F78091E80085FF03
:1011D000EACF6093F1008091E80085FD0AC080911C
:1011E000E80080FFFCCF8091E8008E778093E800D4
:1011F00006C09FB7F89481E080932E019FBF3F7097
:101200003093E90080E008953F703093E9008FEF5C
:101210000895DF93CF9300D00F92CDB7DEB7AC0126
:101220008091BA01843029F583E08093E9002FEFA3
:1012300095ED05C0892F8A95F1F7222329F0809139
:10124000E800215085FFF6CF8091E80085FF11C0AE
:101250005B834A8383E08983CE01019663E070E07B
:1012600040E050E00E94AF0C8091E8008E778093C0
:10127000E8000F900F900F90CF91DF910895DF93CA
:10128000CF9300D00F92CDB7DEB7AC018091BA01F9
:10129000843029F583E08093E9002FEF95ED05C0B8
:1012A000892F8A95F1F7222329F08091E8002150B7
:1012B00085FFF6CF8091E80085FF11C05B834A83EC
:1012C00082E08983CE01019663E070E040E050E067
:1012D0000E94AF0C8091E8008E778093E8000F9019
:1012E0000F900F90CF91DF910895AC018091BA01DA
:1012F000843001F582E08093E9002FEF95ED05C081
:10130000892F8A95F1F7222329F08091E800215056
:1013100085FFF6CF8091E80085FF0CC0CA0165E02B
:1013200070E040E050E00E94AF0C8091E8008E77C2
:101330008093E80008950F931F93182F092F809131
:10134000BA01843009F04DC0809101018823E9F091
:1013500080910C018823C9F085E08093E9009FEF1C
:1013600025E105C0822F8A95F1F7992329F0809114
:10137000E800915085FFF6CF8091E80085FF31C0ED
:10138000812F902F60E170E018C081E08093E90028
:101390009FEF25ED05C0822F8A95F1F7992329F05B
:1013A0008091E800915085FFF6CF8091E80085FF9D
:1013B00018C0812F902F68E070E040E050E00E945C
:1013C000AF0C8091E8008E778093E800A1E3B1E054
:1013D000212F302FC901FC0180E101900D92815035
:1013E000E1F71F910F9108958EED91E00E9447065D
:1013F000089582EE91E00E944706089586EE91E0FE
:101400000E9447061092B90108958AEE91E00E9469
:1014100047068091B901882349F40E948D0D0E94EE
:10142000EE0D8091E20084608093E200089584B71D
:10143000877F84BF88E10FB6F89480936000109294
:1014400060000FBE80E090E020E80FB6F894209393
:101450006100809361000FBE0E9429110E948D0DD2
:101460000E94EE0D8091E20084608093E20082EAA7
:1014700098E00E94601C78948091BA018430E1F772
:1014800089EC91E00E9447060E94F41182E091E00D
:101490000E948B1088EB91E00E94470610C084EBFD
:1014A00091E00E9447060E949A1C8091B80188230F
:1014B00031F00E94EE1C882311F00E94C40B809131
:1014C000BA01853061F30E945E11F9CF8091BC01B1
:1014D000833009F457C0843030F4813071F08230A9
:1014E00009F0B1C098C08A3009F485C08B3009F486
:1014F0006AC0893009F0A7C020C08091BB01813A41
:1015000009F0A1C08091E800877F8093E800809176
:10151000BF019091C001892B21F481E391E060E14A
:1015200003C080E090E060E070E00E94DA0B809100
:10153000E8008B778093E80008958091BB018132A9
:1015400009F081C08091BF019091C001009719F00E
:10155000049709F078C08091E800877F8093E800C5
:1015600005C08091BA01882309F46DC08091E8001C
:1015700082FFF7CF8091F10080932D018091E800E8
:101580008B771CC08091BB01813A09F05CC08091CF
:10159000BF019091C001892B09F055C08091E800EE
:1015A000877F8093E8008091E80080FFFCCF8091E6
:1015B00001018093F1008091E8008E778093E8002C
:1015C0000E943A0D08958091BB018132E1F580912E
:1015D000BF019091C001892BB1F58091E800877F10
:1015E0008093E8000E943A0D8091BD018093010133
:1015F0000E945A1208958091BB01813221F5809199
:10160000E800877F8093E8000E943A0D8091BE0138
:1016100080932C0108958091BB01813AA1F48091BF
:10162000E800877F8093E8008091E80080FFFCCF8E
:1016300080912C018093F1008091E8008E77809357
:10164000E8000E943A0D089581E061EC42E00E94BA
:10165000020D82E061EC42E00E94020D83E061EC49
:1016600042E00E94020D84E061EC42E20E94020D21
:1016700085E061EC42E10E94020D08958AED91E05F
:101680000E9447060E94EB1C0895DA019330C1F0D6
:10169000943030F4913051F0923009F06DC00BC0AD
:1016A000913221F1923209F067C03FC0E9E0F3E0E6
:1016B00022E130E065C0EBE1F3E02DE830E060C00E
:1016C000813051F0813020F0823009F055C008C0DF
:1016D000E8EAF3E0849107C0ECEAF3E0849103C008
:1016E000E6EBF3E08491282F30E04AC06230A1F0AD
:1016F000633028F4662341F06130F1F508C06330AF
:1017000071F06430C9F50EC0EDE2F3E002C0E6E42A
:10171000F3E029E030E034C0EFE5F3E0FACFE8E7AA
:10172000F3E0F7CFE8E9F3E0F4CF6230B1F06330F3
:1017300028F4662341F06130F9F40AC0633091F077
:101740006430D1F414C0EEEEF1E02FE330E018C0C5
:10175000EDE2F2E02DE430E013C0EAE7F2E026E348
:1017600030E00EC0E0EBF2E020E230E009C0E0ED56
:10177000F2E029E330E004C0E0E0F0E020E030E017
:10178000ED93FC93C901089580E189BD82E189BD93
:1017900009B400FEFDCF8091D8008F7D8093D800E2
:1017A0008091E00082608093E0008091E00081FD04
:1017B000FCCF08959C014091C1015091C201461790
:1017C000570718F4F90190E043C06115710511F055
:1017D000AB01F8CF8091E8008E778093E80040E07D
:1017E00050E0F0CF8091BA01882309F447C08530DA
:1017F00009F446C08091E80083FD44C08091E80070
:1018000082FD36C08091E80080FF22C08091F30005
:101810009091F200782F60E0292F30E0262B372BB3
:1018200007C081918093F100415050402F5F3F4F9E
:101830004115510519F02830310598F390E0283012
:10184000310509F491E08091E8008E778093E800FB
:101850004115510539F6992329F60AC08091BA013C
:10186000882361F0853061F08091E80083FD0AC033
:101870008091E80082FFF2CF80E0089582E0089531
:1018800083E0089581E008959C014091C101509149
:10189000C2014617570718F4F90190E044C06115DA
:1018A000710511F0AB01F8CF8091E8008E7780933D
:1018B000E80040E050E0F0CF8091BA01882309F4BD
:1018C00048C0853009F447C08091E80083FD45C0D9
:1018D0008091E80082FD37C08091E80080FF23C03E
:1018E0008091F3009091F200782F60E0292F30E092
:1018F000262B372B08C084918093F10031964150FC
:1019000050402F5F3F4F4115510519F028303105E8
:1019100090F390E02830310509F491E08091E800DF
:101920008E778093E8004115510531F6992321F611
:101930000AC08091BA01882361F0853061F08091FE
:10194000E80083FD0AC08091E80082FFF2CF80E0CA
:10195000089582E0089583E0089581E00895BF929C
:10196000CF92DF92EF92FF920F931F93CF93DF936B
:10197000182F092F7B016A010E945B0DB82E882366
:10198000B1F5812F902F9C01E901C114D10439F0E8
:10199000F60180819181E81AF90AC80FD91F00E089
:1019A00010E022C08091E80085FD16C08091E8001B
:1019B0008E778093E800C114D10449F0F60180814C
:1019C0009181800F911F9183808385E011C00E94D7
:1019D0005B0D882349F00CC089918093F100089435
:1019E000E108F1080F5F1F4FE114F104D9F68B2DC8
:1019F000DF91CF911F910F91FF90EF90DF90CF90EB
:101A0000BF900895382F282F2EC0822F8F7080937B
:101A1000E900231721F4762F942F50E006C070912F
:101A2000EC009091ED005091F00091FF1BC080916F
:101A3000EB008E7F8093EB008091ED008D7F809393
:101A4000ED008091EB0081608093EB007093EC00DF
:101A50009093ED005093F0008091EE0087FD02C05E
:101A600080E008952F5F273080F23F703093E900C7
:101A700081E008958091BB0188239CF404C080918B
:101A8000BA018823B9F08091E80082FFF8CF8091F5
:101A9000E8008B778093E80008958091BA0188234D
:101AA00049F08091E80080FFF8CF8091E8008E77C0
:101AB0008093E80008954091E4005091E50024E609
:101AC0008091EC0080FF24C08091E80080FD1EC062
:101AD0008091BA01882311F482E00895853011F4D1
:101AE00083E008958091EB0085FF02C081E00895B6
:101AF0008091E4009091E5008417950709F3222373
:101B000011F484E008952150AC01DACF80E008950B
:101B10008091E80082FFDCCFF9CF0E94000E0E9486
:101B2000080EE0EEF0E0808181608083A8EDB0E0F7
:101B30008C918F778C9319BCE7EDF0E080818E7FDC
:101B400080838C918F7E8C931092B9010895EF92CF
:101B5000FF920F931F930E94000E0E94080E08ED43
:101B600010E0F80180818F77808380818068808396
:101B700080818F7D808319BC1092BA011092B601CA
:101B80001092B8011092B70180EEE82EF12CF70107
:101B900080818B7F8083F80180818160808380E0F9
:101BA00060E042E00E94020DE1EEF0E080818E7F75
:101BB0008083E2EEF0E080818160808380818860B4
:101BC0008083F70180818E7F8083F801808180612E
:101BD00080831F910F91FF90EF900895E8EDF0E062
:101BE00080818F7E8083E7EDF0E08081816080835B
:101BF00084E082BF81E08093B9010E94A70D08951F
:101C0000E8EDF0E080818E7F80831092E2000895FD
:101C10001092DA001092E10008951F920F920FB611
:101C20000F9211241F932F933F934F935F936F93C2
:101C30007F938F939F93AF93BF93EF93FF931091F5
:101C4000E9008091EC001092E9008091F000877F1C
:101C50008093F00078940E941B0F1092E90080910D
:101C6000F00088608093F0001F701093E900FF91EE
:101C7000EF91BF91AF919F918F917F916F915F9104
:101C80004F913F912F911F910F900FBE0F901F907A
:101C900018951F920F920FB60F9211242F933F9316
:101CA0004F935F936F937F938F939F93AF93BF9364
:101CB000EF93FF938091E10082FF0BC08091E200DF
:101CC00082FF07C08091E1008B7F8093E1000E943A
:101CD0005F088091DA0080FF1FC08091D80080FFEC
:101CE0001BC08091DA008E7F8093DA008091D9004A
:101CF00080FF0DC080E189BD82E189BD09B400FE8D
:101D0000FDCF81E08093BA010E94050A05C019BC8D
:101D10001092BA010E94FE098091E10080FF19C073
:101D20008091E20080FF15C08091E2008E7F809359
:101D3000E2008091E20080618093E2008091D8000F
:101D400080628093D80019BC85E08093BA010E941C
:101D5000F4098091E10084FF30C08091E20084FFAB
:101D60002CC080E189BD82E189BD09B400FEFDCFB0
:101D70008091D8008F7D8093D8008091E1008F7E84
:101D80008093E1008091E2008F7E8093E200809159
:101D9000E20081608093E2008091B601882311F017
:101DA00084E007C08091E30087FD02C081E001C0AC
:101DB00083E08093BA010E943E0B8091E10083FF93
:101DC00029C08091E20083FF25C08091E100877FD8
:101DD0008093E10082E08093BA011092B601809175
:101DE000E1008E7F8093E1008091E2008E7F8093FE
:101DF000E2008091E20080618093E20080E060E098
:101E000042E00E94020D8091F00088608093F00013
:101E10000E94F909FF91EF91BF91AF919F918F912E
:101E20007F916F915F914F913F912F910F900FBED6
:101E30000F901F9018951F93DF93CF93CDB7DEB708
:101E4000AC970FB6F894DEBF0FBECDBFEBEBF1E061
:101E50008091F100819321E0E33CF207C9F70E94F1
:101E6000660A8091E80083FF3EC18091BB013091FA
:101E7000BC01353009F487C0363040F43130C9F147
:101E8000313070F0333009F02EC133C0383009F4EE
:101E9000F9C0393009F409C1363009F024C197C0BE
:101EA000803821F0823809F01EC108C09091B70136
:101EB0008091B801882399F0926011C08091BF0190
:101EC0008F708093E9008091EB0090E025E096957B
:101ED00087952A95E1F7982F91701092E9008091EB
:101EE000E800877F8093E8009093F1001092F10062
:101EF000D4C0882319F0823009F0F5C090E08F71CA
:101F00009070009721F0029709F0EDC00CC080910D
:101F1000BD01813009F0E7C01092B801333069F596
:101F20008093B8012AC08091BD01882331F52091AA
:101F3000BF012F7009F4D7C02093E9008091EB0016
:101F400080FF1BC0333021F48091EB00806213C00E
:101F50008091EB0080618093EB0081E090E002C013
:101F6000880F991F2A95E2F78093EA001092EA0001
:101F70008091EB0088608093EB001092E9008091E3
:101F8000E800877F8DC0882309F0ADC01091BD01A6
:101F90001F778091E3008078812B8093E30080910C
:101FA000E800877F8093E8000E943A0D8091E80066
:101FB00080FFFCCF8091E30080688093E3001123D1
:101FC00011F482E001C083E08093BA018CC0805894
:101FD000823008F088C08091BD019091BE0123E05D
:101FE0008C3D920709F034C083E08C838AE28B83B6
:101FF0007FB7F894DE0115966EE040E050E011E204
:10200000E62FF0E010935700849140FF03C08295C3
:102010008F706F5F8F70282F30E08A3018F0C90101
:10202000C79602C0C901C0968D939D934F5F5F4FC5
:102030004431510529F77FBF8091E800877F809365
:10204000E800CE0103966AE270E00E94DA0B14C049
:102050006091BF01AE014F5F5F4F0E94450BBC0115
:10206000009709F440C08091E800877F8093E800E2
:1020700089819A810E94440C8091E8008B7780933B
:10208000E80031C0803879F58091E800877F80933F
:10209000E8008091B6018093F1008091E8008E778E
:1020A0008093E8000E943A0D1EC08823E1F49091CD
:1020B000BD019230C0F48091E800877F8093E800F2
:1020C0009093B6010E943A0D8091B601882331F4B5
:1020D0008091E30087FD02C081E001C084E080932D
:1020E000BA010E94240B8091E80083FF0AC080910E
:1020F000E800877F8093E8008091EB008062809306
:10210000EB00AC960FB6F894DEBF0FBECDBFCF91FB
:10211000DF911F91089590934601809345010895A2
:10212000E0914501F0914601309711F480E0089567
:102130000190F081E02D09950895E0914501F0911D
:102140004601309721F00480F581E02D099508952E
:102150009C0180914301909144012817390779F03F
:102160003093440120934301E0914501F0914601F1
:10217000309729F00680F781E02DC901099508956F
:102180009C0180914101909142012817390779F013
:102190003093420120934101E0914501F0914601C5
:1021A000309729F00084F185E02DC9010995089543
:1021B000EF92FF920F931F93CF93DF93182F092F66
:1021C000E0914501F09146013097D9F10280F38109
:1021D000E02D09958091A50182FF33C080FF04C0E6
:1021E00084ED93E00E944706812F902F9C01E90126
:1021F00010E08EECE82E83E0F82E8091A50180FFA0
:1022000014C000D000D0EDB7FEB73196ADB7BEB761
:102210001296FC92EE9211978881828313820E941B
:10222000E0060F900F900F900F901F5F21961031D6
:1022300021F78091A50180FF04C08CEC93E00E94FF
:102240004706DF91CF911F910F91FF90EF90089576
:1022500008950E94281108951F93182F8091A501B9
:1022600082FF27C080FF04C08DEE93E00E944706E6
:102270008091A50180FF15C000D000D0EDB7FEB75A
:10228000319688EE93E0ADB7BEB712969C938E93CD
:102290001197128313820E94E0060F900F900F9007
:1022A0000F908091A50180FF04C086EE93E00E940C
:1022B0004706812F0E944C081F910895BF92CF922C
:1022C000DF92EF92FF920F931F93DF93CF93CDB7DF
:1022D000DEB72A970FB6F894DEBF0FBECDBF0E94BF
:1022E0003C07EE24FF24BE2C8E2D0E940407C82E2E
:1022F000F701E85BFE4FD080D82609F43FC08091FB
:10230000A50181FF02C00E94040800E010E0ED2D4D
:10231000F0E0CF01002E02C0959587950A94E2F770
:1023200080FF27C00E940C1D0983BA826C2D70E0CB
:10233000002E02C0759567950A94E2F7617070707F
:102340006B8381609D838C83402F5B2D782F8D81E3
:102350000E948015F701E85BFE4F81E090E0002EBF
:1023600002C0880F991F0A94E2F720812827208352
:102370001DC00F5F1F4F0530110559F60894E11C71
:10238000F11C8AE0E816F10409F0ADCF0E940C1DA3
:102390002FEF2E832F8318868160782F9A87898765
:1023A0004FEF5FEF60E08A850E9480150E94212335
:1023B000109147010E949010181731F00E94901060
:1023C000809347010E942C112A960FB6F894DEBF25
:1023D0000FBECDBFCF91DF911F910F91FF90EF9076
:1023E000DF90CF90BF9008950E94031D0E941107B7
:1023F0000E94251F0895DF93CF9300D000D00F9245
:10240000CDB7DEB70F900F900F900F900F90CF9138
:10241000DF910895DF93CF9300D000D000D0CDB7E7
:10242000DEB726960FB6F894DEBF0FBECDBFCF91B4
:10243000DF9108950E94121A482F892F82958F707C
:10244000282F30E02C3031054CF42A3031056CF463
:102450002250304022303105C0F407C02C30310505
:1024600051F02F30310589F406C0403E10F0403F56
:1024700061F481E008959F70892F90E023E09695A4
:1024800087952A95E1F78170089580E008950E946C
:102490007A1B0E94491B0E94381C0E9445220E9400
:1024A000512280E090E00E94A81080E090E00E941D
:1024B000C01008950E946A1B0E9447120895882345
:1024C00021F00E94601B0E94381C0895882321F08F
:1024D0000E945A1B0E94381C0895282F882339F126
:1024E0008450813A20F4822F0E94921B0DC0822FCB
:1024F000805E883060F4277081E090E001C0880F32
:102500002A95EAF70E94601B0E94381C0895822FCA
:10251000855A833028F480E090E00E94A810089546
:10252000285A253120F480E090E00E94C0100895E0
:102530001F93182F882309F4A7C08450813A50F4C0
:10254000812F0E941129882309F09EC0812F0E94AB
:10255000E01B0DC0812F805E883060F4177081E031
:1025600090E001C0880F1A95EAF70E945A1B0E945A
:10257000381C8AC0812F855A8330A0F4153A19F48B
:1025800081E890E00CC0163A19F482E890E007C0A8
:10259000173A19F080E090E002C083E890E00E94D2
:1025A000A81072C0812F885A853108F06DC0183A82
:1025B00019F482EE90E066C0193A19F489EE90E0C1
:1025C00061C01A3A19F48AEE90E05CC01B3A19F423
:1025D00085EB90E057C01C3A19F486EB90E052C0AE
:1025E0001D3A19F483EB90E04DC01E3A19F484EBC8
:1025F00090E048C01F3A19F487EB90E043C0113BCC
:1026000019F48CEC90E03EC0103B19F48DEC90E096
:1026100039C0123B19F483E891E034C0133B19F43C
:102620008AE891E02FC0143B19F482E991E02AC0B6
:10263000153B19F484E991E025C0163B19F481E2B9
:1026400092E020C0173B19F483E292E01BC0183BD4
:1026500019F484E292E016C0193B19F485E292E085
:1026600011C01A3B19F486E292E00CC01B3B19F42E
:1026700087E292E007C01C3B19F080E090E002C0C6
:102680008AE292E00E94C0101F910895AF92BF921B
:10269000CF92DF92EF92FF920F931F93DF93CF932E
:1026A000CDB7DEB72A970FB6F894DEBF0FBECDBF09
:1026B0005C01DE011196FC0185E001900D928150D4
:1026C000E1F70B81F501F580F2944FE0F422DE0191
:1026D0001696FE01319685E001900D928150E1F74A
:1026E0003E812F8189859A85892B09F4F8C12F3F76
:1026F00009F0C8C13F3F09F0C5C1F1C18D2D8F70F0
:10270000222311F4182F03C0182F1295107F0023D5
:1027100049F0112309F490C1812F0E946D1B0E9482
:10272000381C8AC18C2D0E946D12112309F4D7C167
:10273000812F0E94731B0E94381CD1C18D2D8F7078
:10274000203211F4182F03C0182F1295107FCC20BF
:1027500021F0F1E0CF1629F514C0002349F0FF2045
:1027600051F121E0F21639F5812F0E947D1BB7C18E
:10277000FF2021F081E0F81609F4B1C10E94801B0E
:102780002FC1002349F0E5E0EF1508F4A8C10E942D
:10279000571B812381F024C1F4E0FF1508F49FC189
:1027A0001FC1002361F0FF2031F0F501858180FF1A
:1027B00043C18F708583812F0E94661290C1FF20D4
:1027C00009F40EC144C18D2D86958695837090E0E5
:1027D000009721F0019709F082C10AC0002319F087
:1027E000C601937002C080E090E00E94A81077C1FB
:1027F000002319F0C601937002C080E090E00E94AF
:10280000C0106DC1002321F08C2D0E94532103C004
:102810008C2D0E94BD210E94512261C18D2D83709B
:1028200009F05EC0002309F05AC12C2D229526958F
:102830002770220F220F8C2D8F70E82EFF2400E0CE
:1028400010E0022E04C0EE0CFF1C001F111F0A94A2
:10285000D2F7C4FC05C060E070E080E090E00FC0FB
:102860006FE070E080E090E004C0660F771F881F83
:10287000991F2A95D2F76095709580959095D6947A
:10288000D694F3E0DF224D2D50E041305105A9F000
:10289000423051051CF4452B49F021C1423051050D
:1028A00089F04330510509F01AC113C06E297F2900
:1028B000802B912B0E94241B12C16E297F29802B13
:1028C000912B0BC06E297F29802B912B0E94131B0B
:1028D00006C10E94241BC801B7010E94351BFFC01E
:1028E00090E0002311F496958795817009F4F7C064
:1028F0002C2D229526952770220F220F8C2D8F705C
:10290000E82EFF2400E010E0022E04C0EE0CFF1CB5
:10291000001F111F0A94D2F7C4FC05C060E070E0EC
:1029200080E090E00FC06FE070E080E090E004C0D5
:10293000660F771F881F991F2A95D2F760957095AB
:1029400080959095D694D69423E0D2224D2D50E0D8
:1029500041305105A9F0423051051CF4452B49F096
:10296000BEC04230510589F04330510509F0B7C06F
:1029700013C06E297F29802B912B0E94771AAFC03C
:102980006E297F29802B912B0BC06E297F29802BEC
:10299000912B0E94661AA3C00E94771AC801B70142
:1029A0000E94881A9CC080EFC816F1F08C1520F0A8
:1029B000E0EECE16E8F109C0F2EFCF1651F1CF16D6
:1029C00018F123EFC216A1F529C01C2D1F708D2D03
:1029D0008F71002319F00E94D51AEDCE0E94B51A0E
:1029E000812F0E945F127BC0002329F084E08F15A5
:1029F00008F475C004C0E5E0EF1508F470C08D2D33
:102A00008F710E94991A6BC08D2D8F71002329F14F
:102A100019C08D2D8F710023A9F01FC0002329F04C
:102A20008D2D8F710E94F11A5AC00E94011B57C050
:102A3000002359F0FF2021F08C2D0E9498124FC0E6
:102A40008D2D8F710E94D51A4AC0FF2021F08C2D48
:102A50000E946D1244C08D2D8F710E94B51A3FC027
:102A6000FFE0DF22C5016C2D4D2D0E949B1D0E94B1
:102A70007C1935C02FE0D222C5016C2D4D2D0E944E
:102A80009E1D2DC089819A810E94121A6C010E949C
:102A9000111A0E94101A8D2D82958F7090E085304A
:102AA000910509F4AFCE8630910554F48430910538
:102AB0000CF089CE2D2D207F02970CF03FCE1ECE3C
:102AC0008C3091053CF48A3091050CF06CCF08975E
:102AD00031F4A4CE8C30910519F20F9759F22A9651
:102AE0000FB6F894DEBF0FBECDBFCF91DF911F911F
:102AF0000F91FF90EF90DF90CF90BF90AF9008952F
:102B0000DF93CF93CDB7DEB72B970FB6F894DEBF28
:102B10000FBECDBF342F4F83252F588769877A8703
:102B20008B87472F582FFE01319686E0DF011D92DB
:102B30008A95E9F76B8339832A834C835D83432F1E
:102B4000522F8D819E810E94BD182B960FB6F8944E
:102B5000DEBF0FBECDBFCF91DF9108950F931F93BE
:102B60000091590115C010E0F801EE0FFF1FE00FB2
:102B7000F11FEE0FFF1FE65AFE4F40815181628127
:102B80007381848195810E940A120F5F1F4F077025
:102B900080915801081739F71F910F9108954091BE
:102BA00052015091530160915401709155018091EF
:102BB0005601909157010E940A1208950F931F9396
:102BC000CF93DF938091570182958F7009F06DC08C
:102BD00080915401882309F468C0609159010091E3
:102BE0005801409155015091560110915301709137
:102BF0005201EA01C095D09555C04115510509F41F
:102C00004FC01F3F49F480E090E07F3F11F481E026
:102C100090E0882309F044C0262F30E0F901EE0F40
:102C2000FF1FE20FF31FDF01AA0FBB1FA65ABE4F03
:102C300011968C911197181799F58C91781781F549
:102C4000EE0FFF1FE45AFE4F8081882349F513964B
:102C50008D919C9114978417950718F0841B950B00
:102C600002C08C0F9D1F883C9105D0F480915701C4
:102C70008F70806180935701F901EE0FFF1FE20F03
:102C8000F31FEE0FFF1FE15AFE4F80818F708061AE
:102C9000808382E591E00E9446130E94AE1505C034
:102CA0006F5F6770601709F0A8CFDF91CF911F9118
:102CB0000F910895DF92EF92FF920F931F93DF938E
:102CC000CF93CDB7DEB76B970FB6F894DEBF0FBECC
:102CD000CDBF8C01DC011296DC9012974C911196BD
:102CE0005C9111971396ED90FC90149720915501EB
:102CF00030915601609153017091520121153105B7
:102D000009F4DBC16F3F09F003C27F3F09F000C245
:102D1000D4C1E216F30640F0C701821B930B883C36
:102D2000910508F0EEC008C0209530952E0D3F1D8E
:102D3000283C310508F0E5C080915701807F09F0FB
:102D400095C06F3F09F0EAC17F3F09F0E7C115C0A8
:102D5000741799F4DD2089F4809157018F70806198
:102D6000809357010E94CF1582E591E00E9446139F
:102D700080915701F8018583BCC1FD82EC825A83A2
:102D80004983DB82DE011696FE01319685E00190D3
:102D90000D928150E1F76885DE011B96FE013696A3
:102DA00085E001900D928150E1F72C853B858E8561
:102DB0009F85892B09F451C02F3F09F0B3C13F3FD4
:102DC00009F0B0C14AC0FD82EC825A834983DB829C
:102DD000DE011B96FE01319685E001900D92815037
:102DE000E1F7FC847B856D858091590190915801B4
:102DF0001FC0282F30E0F901EE0FFF1FE20FF31F75
:102E0000DF01AA0FBB1FA65ABE4F11968C911197D6
:102E1000F81651F48C91781739F4EE0FFF1FE45A2D
:102E2000FE4F80816817C9F42F5F3F4F822F877054
:102E30008917F9F68DC19F7059F0442349F459C19F
:102E40009F7031F0D80115968C91807F09F451C1A3
:102E5000405E483008F44DC148C1DD2009F449C145
:102E60008091570181608093570143C16F3F09F002
:102E70005DC17F3F09F05AC114C0741791F4DD2081
:102E800081F480915701F8018583C8010E9446139F
:102E9000A2E5B1E0F80186E001900D928150E1F7E2
:102EA00020C15A83498389819A810E941A128823FA
:102EB00009F41BC1DD2009F418C130915701832F9B
:102EC00082958F7090E002979CF090915301209131
:102ED0005201FE01709686E0DF011D928A95E9F7A6
:102EE000998B288BFC8AEB8A3D8BCF010E9446137D
:102EF000A2E5B1E0F80186E001900D928150E1F782
:102F0000EEC080915701807FA9F47E2DFD82EC8276
:102F10005A834983DB826D2D8D810E94FB1102E56E
:102F200011E0C8010E94461386E0F80111928A95CB
:102F3000E9F7C0C06F3F09F0FDC07F3F09F0FAC05C
:102F400014C0741791F4DD2081F480915701D801E9
:102F500015968C93C8010E944613E2E5F1E086E0E5
:102F6000DF011D928A95E9F7BEC05A8349838981A2
:102F70009A810E941A12882309F4B7C0DD2009F44F
:102F8000B4C030915701832F82958F7090E00297E3
:102F90009CF09091530120915201FE01769686E0BB
:102FA000DF011D928A95E9F79F8B2E8BFA8EE98EB1
:102FB0003B8FCF010E944613A2E5B1E0F80186E005
:102FC00001900D928150E1F78AC06F3F09F0B6C0C1
:102FD0007F3F09F0B3C071C0E216F30640F0C701AD
:102FE000821B930B883C910508F053C008C02095C4
:102FF00030952E0D3F1D283C310508F04AC0DD20DC
:1030000009F473C06F3F09F09FC07F3F09F09CC077
:1030100029C0741739F59091570190FD1AC0892F76
:1030200082958F70B1F0F80195838F3031F08F5F0A
:103030008295807F9F70982B9583C8010E944613CC
:10304000A2E5B1E0F80186E001900D928150E1F730
:1030500048C0A2E5B1E0F80186E001900D928150F0
:10306000E1F741C05A83498389819A810E941A12EB
:10307000882349F0A2E5B1E0F80186E001900D92C5
:103080008150E1F72CC080915701816080935701F6
:103090002CC07E2DFD82EC825A834983DB826D2D0C
:1030A0008D810E94FB11E2E5F1E086E0DF011D92D7
:1030B0008A95E9F70E94CF151CC0DD20B1F05A8334
:1030C000498389819A810E941A12882371F0A2E5AE
:1030D000B1E0F80186E001900D928150E1F70E9485
:1030E000DE150E94CF1581E005C0C8010E9446137D
:1030F000FACF80E06B960FB6F894DEBF0FBECDBF5F
:10310000CF91DF911F910F91FF90EF90DF90089585
:1031100080915401882309F458CFFBCD651709F03D
:103120002CCE16CE613009F498CE4DCE651709F03D
:10313000B8CEA3CE651709F018CF03CF8091540104
:10314000882309F0BACF48CF651709F08BCF61CF3C
:103150005A83498389819A810E94121A482F892FA4
:1031600082958F70282F30E0223031050CF463CE29
:10317000243031050CF0B9CF63CE0F931F93DF934A
:10318000CF93CDB7DEB72C970FB6F894DEBF0FBE46
:10319000CDBF4F83588769877A878B879C878E013D
:1031A000095F1F4FC8010E945A168823D9F028854D
:1031B0003F818A859B85892B09F46BC02F3F49F499
:1031C00080E090E03F3F11F481E090E0882309F037
:1031D00060C04F81588569857A858B859C850E9462
:1031E0000A1257C0DE011196F80186E001900D9297
:1031F0008150E1F7F981EA814C815D8141155105EA
:1032000009F447C0EF3F09F04CC0FF3F09F049C047
:1032100040C0F983EA835D834C83F901EE0FFF1F01
:10322000E20FF31FEE0FFF1FE65AFE4FDE0111966D
:1032300086E00D9001928150E1F7609358010E9461
:10324000AE1527C0919FC0011124865A9E4F0E943F
:103250005A16882309F445C08091590190E0FC0179
:10326000EE0FFF1FE80FF91FEE0FFF1FE65AFE4F8C
:103270004081518162817381848195810E940A120B
:103280008091590190E00196877090708093590168
:1032900001C016E09091590180915801981791F65C
:1032A00020C080915801282F30E02F5F3F4FB90197
:1032B00067707070215030408091590190E068171C
:1032C000790709F0A6CF0E945A1210925801109265
:1032D0005901E2E5F1E086E0DF011D928A95E9F708
:1032E000D8CF2C960FB6F894DEBF0FBECDBFCF91CE
:1032F000DF911F910F910895CF92DF92EF92FF928D
:103300000F931F93CF93DF93EC01009709F47FC0D5
:10331000EE24FF2480EAC82E8FE0D82E01E010E0D2
:10332000FE0121969491953709F450C0963760F4C8
:10333000943708F040C0943008F057C09130B1F095
:10334000923009F064C023C0983709F44BC0993714
:1033500038F4963709F43EC0973709F058C03EC09C
:10336000892F8458803708F052C043C0FE0121964F
:103370009491892F805E883008F037C09770802F35
:1033800001C0880F9A95EAF70E946D1B0FC0FE01DD
:1033900021969491892F805E883058F49770802F01
:1033A00001C0880F9A95EAF70E94731B0E94381C8F
:1033B00024C0892F20C0FE01249104C0C6010197BA
:1033C000F1F721502223D1F7219617C0FE01219653
:1033D000E49013C00E94571BF82E0FC08F2D0E943F
:1033E000671BE4CF0E946A1BE1CF892F0E949812CD
:1033F00004C0892F8F770E946D122E2D04C0C60144
:103400000197F1F72150222309F48ACFF8CFDF91F9
:10341000CF911F910F91FF90EF90DF90CF90089583
:1034200008950895CF92DF92EF92FF920F931F932A
:10343000CF93DF936C01E0908A01F0908B010091B3
:103440008C0110918D0180918E0190918F01A0913E
:103450009001B0919101E82AF92A0A2B1B2BCFE1A8
:10346000D0E0D801C7010C2E04C0B695A79597955A
:1034700087950A94D2F781709070892B41F08C2F38
:10348000B6010E94551E9C018130910551F421978F
:103490008FEFCF3FD80729F780E0B6010E94551E75
:1034A0009C01822FDF91CF911F910F91FF90EF90A0
:1034B000DF90CF90089560938E0170938F01809379
:1034C0009001909391010E94471208959B01AC01D5
:1034D00060918E0170918F01809190019091910186
:1034E00062277327842795270E945B1A08959B0102
:1034F000AC0160918E0170918F018091900190914B
:10350000910162237323842395230E945B1A0895FB
:103510009B01AC0160918E0170918F0180919001AF
:1035200090919101622B732B842B952B0E945B1A37
:10353000089521E030E040E050E004C0220F331F46
:10354000441F551F8A95D2F780918E0190918F016B
:10355000A0919001B0919101282739274A275B2734
:10356000CA01B9010E945B1A089521E030E040E0F1
:1035700050E004C0220F331F441F551F8A95D2F715
:10358000209530954095509580918E0190918F01B6
:10359000A0919001B0919101282339234A235B2304
:1035A000CA01B9010E945B1A089521E030E040E0B1
:1035B00050E004C0220F331F441F551F8A95D2F7D5
:1035C00080918E0190918F01A0919001B091910115
:1035D000282B392B4A2B5B2BCA01B9010E945B1A9D
:1035E000089521E030E040E050E004C0220F331F96
:1035F000441F551F8A95D2F7CA01B9010E945B1A70
:10360000089560E070E080E090E00E945B1A089509
:1036100060938A0170938B0180938C0190938D014C
:103620000E94471208959B01AC0160918A0170913C
:103630008B0180918C0190918D01622773278427E3
:1036400095270E94081B08959B01AC0160918A0197
:1036500070918B0180918C0190918D016223732375
:10366000842395230E94081B08959B01AC0160915F
:103670008A0170918B0180918C0190918D01622B58
:10368000732B842B952B0E94081B08950E94081B06
:10369000089581E090E0E0910D01F0910E01E80FB6
:1036A000F91F1082019680319105A9F70895809144
:1036B000A20108959091A201982B9093A2010895E0
:1036C00080959091A20198239093A20108958093F0
:1036D000A20108951092A20108959091A401982B3F
:1036E0009093A401089580959091A40198239093BC
:1036F000A40108951092A40108958093A301089550
:103700001092A3010895E0910D01F0910E0120E0C7
:1037100091E0818181112F5F9F5F31969031C9F7D0
:10372000822F0895482F809101018823B9F180915B
:103730000C01882399F1842F8695869586958F3084
:1037400098F4E0910D01F0910E01E80FF11D477022
:1037500081E090E002C0880F991F4A95E2F78095BA
:1037600021818223818308958091A50180FF27C054
:1037700000D000D0EDB7FEB7319680E094E0ADB751
:10378000BEB712969C938E931197428313820E9428
:10379000E0060F900F900F900F90089520E030E01A
:1037A000E0910D01F0910E01E20FF31F8281841769
:1037B00009F412822F5F3F4F2E30310589F70895AB
:1037C000382F809101018823B1F180910C01882369
:1037D00091F1832F8695869586958F3090F4E091B0
:1037E0000D01F0910E01E80FF11D377081E090E0BE
:1037F00002C0880F991F3A95E2F72181282B218377
:1038000008958091A50180FF32C000D000D0EDB7AF
:10381000FEB731968EE194E0ADB7BEB712969C9399
:103820008E931197328313820E94E0060F900F90BF
:103830000F900F900895A0910D01B0910E01FD0120
:1038400020E08FEF9281931791F08F3F19F4992325
:1038500009F4822F2F5F31962E30A1F78F3F39F078
:10386000992787FD9095A80FB91F12963C9308954C
:10387000E0910D01F0910E018091A2018083E09111
:103880000D01F0910E0180819091A401892B80831C
:103890009091A301992369F0E0910D01F0910E013F
:1038A0008081892B80830E94831B882311F00E94D2
:1038B000801B80910D0190910E010E94D8100895F7
:1038C00090931701809316010895282F22952F7049
:1038D0008295807F282B30E0C9018C7C9070959573
:1038E00087959595879523733070220F331F220F8C
:1038F000331F822B282F30E0C9018A7A907095956A
:10390000879525753070220F331F822B08950F93F2
:103910001F93192F0E94651C082F812F0E94651C80
:10392000502F40E0282F30E0242B352BC9011F9168
:103930000F9108958091BA01843009F11092A60187
:1039400020E488E190E00FB6F894A8958093600099
:103950000FBE2093600083B7817F846083BF83B7ED
:10396000816083BF7894889583B78E7F83BF88E119
:103970000FB6F89480936000109260000FBE089517
:10398000089508951F920F920FB60F9211248F93EE
:103990009F93AF93BF938091A601882399F4809160
:1039A000A7019091A801A091A901B091AA01419607
:1039B000A11DB11D8093A7019093A801A093A90117
:1039C000B093AA01BF91AF919F918F910F900FBEBD
:1039D0000F901F9018950E945A1208951F930E94ED
:1039E000C01C0E943C070E94C11C10E0812F0E9455
:1039F0000407882311F081E004C01F5F1A30B1F77B
:103A000080E01F91089582E084BD93E095BD9AEF18
:103A100097BD80936E0008958FB7F8942091A70109
:103A20003091A8014091A9015091AA018FBFC9010D
:103A300008958FB7F8942091A7013091A801409183
:103A4000A9015091AA018FBFB901CA010895EF924F
:103A5000FF920F931F93BC018FB7F894E090A701DA
:103A6000F090A8010091A9011091AA018FBFA801AF
:103A7000970140705070CB01A0E0B0E028173907E3
:103A80004A075B0720F09701261B370B05C09B01F7
:103A9000209530952E0D3F1DC9011F910F91FF906C
:103AA000EF9008951F920F920FB60F9211248F93EB
:103AB0009F93AF93BF938091A7019091A801A0918C
:103AC000A901B091AA010196A11DB11D8093A70182
:103AD0009093A801A093A901B093AA01BF91AF91BF
:103AE0009F918F910F900FBE0F901F9018950E947D
:103AF0008D0DF89480E29EE420E931E0F9013197E0
:103B0000F1F70197D9F787E090EBA7E0B0EB80934E
:103B1000C4019093C501A093C601B093C7012CE0E6
:103B200088E190E00FB6F894A895809360000FBEEE
:103B300020936000FFCF80E090E008950895CF9338
:103B4000DF93282FC0E0D0E08D3B50F4883A28F571
:103B5000853AB0F4843080F4813009F0A0C08EC082
:103B6000883E30F4803E40F48F3B09F098C089C015
:103B7000803F08F494C07EC0822F90E09C0178C002
:103B8000853A19F421E830E473C0863A19F023E845
:103B900030E46EC022E830E46BC0883A19F422EEBB
:103BA00034E466C0893A19F429EE34E461C08A3AF3
:103BB00019F42AEE34E45CC08B3A19F425EB34E4B2
:103BC00057C08C3A19F426EB34E452C08D3A19F4FC
:103BD00023EB34E44DC08E3A19F424EB34E448C0AE
:103BE0008F3A19F427EB34E443C0813B19F42CECF1
:103BF00034E43EC0803B19F42DEC34E439C0823B00
:103C000019F423E835E434C0833B19F42AE835E499
:103C10002FC0843B19F422E935E42AC0853B19F40E
:103C200024E935E425C0863B19F421E236E420C0BE
:103C3000873B19F423E236E41BC0883B19F424E2E5
:103C400036E416C0893B19F425E236E411C08A3BFC
:103C500019F426E236E40CC08B3B19F427E236E473
:103C600007C08C3B19F020E034E402C02AE236E4BD
:103C7000E90117C0C82FD0E0D06513C0C1E0D0E083
:103C800010C00E945A1284EF91E020E931E0F9015E
:103C90003197F1F70197D9F70E94771D02C0C0E074
:103CA000D0E0CE01DF91CF9108950E94E906803ED9
:103CB000B0F4803C20F5813309F460C0823338F4DD
:103CC000893209F453C08A3209F067C05CC0893375
:103CD000C9F08238B9F0853309F05FC042C0833E35
:103CE00029F1843E30F4803EA1F0823E09F055C0B7
:103CF00018C0863E29F1873E09F04FC026C00E94B9
:103D0000FA0608959091C30190FD09C091FD07C086
:103D100041C08091C30180FF02C089E33BC080EEB7
:103D200039C08091C30182FD07C004C08091C301E6
:103D300082FF02C082EE2EC084FD0FC083EE2AC037
:103D40008091C30183FD07C004C08091C30183FF3C
:103D500002C086EE1FC084FF02C080E01BC087EE59
:103D600019C08091C30185FF05C006C08091C301C1
:103D700085FF02C085E30EC089E20CC08091C301BB
:103D800086FF05C006C08091C30186FF02C081E3A3
:103D900001C08AE20E949F1D08950E949F1D089500
:103DA000CF92DF92EF92FF921F93CF93DF937C012C
:103DB00010E0812F0E940407C0E0D0E0C82EDD246F
:103DC000C6010C2E02C0959587950A94E2F780FFF4
:103DD0001BC080E06C2F712F0E94551E9C018E1518
:103DE0009F05D9F0832F807F51F0803141F08032E0
:103DF00031F0803321F0803A11F0803B29F4822F9A
:103E000090E08E159F0549F02196C530D105C1F689
:103E10001F5F1A3071F680E001C081E0DF91CF9121
:103E20001F91FF90EF90DF90CF900895CF93DF9395
:103E3000EC018CE290E00E94D01E882319F0CE01A4
:103E40000E94D01EDF91CF9108951F93CF93DF93EF
:103E50000E94B220882311F40E94BD2083E494E0E4
:103E60000E94470614E6C0E4DCE905C00E943C0756
:103E7000CE010197F1F71150C8F78CE394E00E944E
:103E8000470689E290E00E94161F882309F045C189
:103E90008AE290E00E94161F882311F00E94BD2044
:103EA00085E090E00E94161F882311F00E94771D84
:103EB0000E94AD208093A50187E090E00E94161F2C
:103EC0008823D1F18BE190E00E94161F882349F0EE
:103ED0009091A501892F869580958170880F9D7F8F
:103EE00028C08EE090E00E94161F882359F0909120
:103EF000A501892F8695869580958170880F880FFA
:103F00009B7F17C080E190E00E94161F9091A50151
:103F1000882359F0892F869586958695809581709E
:103F2000880F880F880F977F04C0892F8095817034
:103F30009E7F982B9093A5018091A5010E949D20C2
:103F40000E94A3208093C30180EE90E00E94161F80
:103F5000882349F08091C301982F909591708E7FAE
:103F6000892B8093C30189E390E00E94161F882368
:103F700059F09091C301892F869580958170880FA3
:103F80009D7F982B9093C30182EE90E00E94161FB4
:103F9000882369F09091C301892F86958695809535
:103FA0008170880F880F9B7F982B9093C30186EEBA
:103FB00090E00E94161F882379F09091C301892F09
:103FC00086958695869580958170880F880F880FD5
:103FD000977F982B9093C30183EE90E00E94161F69
:103FE000882369F09091C301892F82958F70809505
:103FF00081708295807F9F7E982B9093C30185E38B
:1040000090E00E94161F882379F09091C301892FB8
:10401000829586958770809581708295880F807EC5
:104020009F7D982B9093C30181E390E00E94161F1F
:10403000882389F09091C301892F82958695869572
:104040008370809581708295880F880F807C9F7B1C
:10405000982B9093C30181E190E00E94161F882362
:1040600079F08091C301982F991F9927991F21E01A
:1040700092279795992797958F77892B8093C301DE
:104080008091C3010E9491208091C301881F8827DD
:10409000881F80930C0187E290E00E94161F182F62
:1040A0008EE190E00E94161F811112608FE190E076
:1040B0000E94161F8111146080E290E00E94161F7A
:1040C0008111186081E290E00E94161F8111106139
:1040D00082E290E00E94161F8111106283E290E05C
:1040E0000E94161F8111106484E290E00E94161F46
:1040F00081111068112341F0812F0E949720612FB8
:1041000070E080E090E007C00E94A82090E0A0E06E
:10411000B0E0BC01CD010E94461BDF91CF911F9101
:104120000895682F84E090E00E94422C0895682F43
:1041300083E090E00E94422C0895682F82E090E096
:104140000E94422C089584E090E00E94342C08954F
:1041500083E090E00E94342C089582E090E00E9479
:10416000342C089580E090E00E943C2C20E08D5E8D
:104170009E4F09F421E0822F089580E090E06DEEDB
:104180007EEF0E94502C82E090E060E00E94422C82
:1041900083E090E060E00E94422C84E090E060E0E8
:1041A0000E94422C85E090E060E00E94422C08953D
:1041B0008091B10180FF0BC09091110185E0989F23
:1041C000C0011124959587959595879530C081FFFD
:1041D00009C09091110185E0989FC0011124959527
:1041E000879525C082FF03C0909111010DC0809179
:1041F000B001882319F485E090E0089560911201E0
:1042000090911101861728F085E0989FC001112434
:104210000EC0899F90011124C901880F991F880F32
:10422000991F820F931F70E00E940D2CCB018038E4
:10423000910510F08FE70895009709F481E0089543
:104240008091B10180FF05C080911301869586950C
:1042500018C081FF04C080911301869512C082FFAF
:1042600003C0809113010DC02091B001222319F4E5
:1042700081E090E008956091140180911301261768
:1042800010F090E007C0289FC001112470E00E9448
:104290000D2CCB018038910510F08FE70895009721
:1042A00009F481E00895803F21F40E94D82081958F
:1042B00004C0813F29F40E94D8208093AD01089565
:1042C000823F21F40E94D820819504C0833F29F4C5
:1042D0000E94D8208093AC010895893F19F40E9470
:1042E000202105C08A3F31F40E94202181958093CE
:1042F000AE0108958B3F21F40E942021819504C0D6
:104300008C3F29F40E9420218093AF010895843FBF
:1043100021F48091AB01816017C0853F21F4809129
:10432000AB01826011C0863F21F48091AB018460B3
:104330000BC0873F21F48091AB01886005C0883FA6
:1043400031F48091AB0180618093AB0108958D3F82
:1043500021F48091B101816005C08E3F31F48091DC
:10436000B10182608093B10108958F3F29F480915B
:10437000B10184608093B1010895803F29F4809158
:10438000AD0187FF6FC007C0813F41F48091AD014F
:1043900018160CF067C01092AD0164C0823F29F47A
:1043A0008091AC0187FF5EC007C0833F41F48091DC
:1043B000AC0118160CF056C01092AC0153C0893FE6
:1043C00029F48091AE0118163CF04CC08A3F39F4B4
:1043D0008091AE0187FF46C01092AE0143C08B3F73
:1043E00029F48091AF0187FF3DC006C08C3F39F4AE
:1043F0008091AF011816B4F51092AF0133C0843F1D
:1044000021F48091AB018E7F05C0853F31F480910E
:10441000AB018D7F8093AB0125C0863F21F4809155
:10442000AB018B7FF7CF873F21F48091AB01877F72
:10443000F1CF883F21F48091AB018F7EEBCF8D3F90
:1044400021F48091B1018E7F0BC08E3F21F48091C9
:10445000B1018D7F05C08F3F29F48091B1018B7F21
:104460008093B1018091AC01882371F48091AD01FA
:10447000882351F48091AE01882331F48091AF01FB
:10448000882311F41092B0010895EBEAF1E085E081
:10449000DF011D928A95E9F71092B0011092B101E7
:1044A00008958091A50183FFC1C08FE794E00E9429
:1044B000470600D000D0EDB7FEB731968AE794E00A
:1044C000ADB7BEB712969C938E9311978091AB01B6
:1044D000828313820E94E0060F900F900F900F903E
:1044E00088E794E00E94470600D000D085E794E07A
:1044F000EDB7FEB7928381838091AC01992787FD48
:104500009095948383830E94E0060F900F900F9004
:104510000F9083E794E00E94470600D000D080E728
:1045200094E0ADB7BEB712969C938E93119780918D
:10453000AD01992787FD909514969C938E931397C0
:104540000E94E0060F900F900F900F908EE694E07F
:104550000E94470600D000D08BE694E0EDB7FEB78E
:10456000928381838091AE01992787FD90959483F2
:1045700083830E94E0060F900F900F900F9089E6C2
:1045800094E00E94470600D000D086E694E0ADB7E4
:10459000BEB712969C938E9311978091AF01992785
:1045A00087FD909514969C938E9313970E94E00636
:1045B0000F900F900F900F9083E694E00E944706B3
:1045C00000D000D0EDB7FEB7319680E694E0ADB7ED
:1045D000BEB712969C938E9311978091B0018283FF
:1045E00013820E94E0060F900F900F900F908EE5BF
:1045F00094E00E94470600D000D0EDB7FEB7319698
:104600008BE594E0ADB7BEB712969C938E9311974D
:104610008091B101828313820E94E0060F900F9077
:104620000F900F9088E594E00E9447068BEA91E096
:104630000E949D100E940C1D9093B3018093B201C3
:1046400008951F938091B2019091B3010E94271D9C
:10465000AC012091B001222321F08091100190E063
:1046600006C090910F018AE0989FC001112448175D
:10467000590708F485C09091AC01992369F48091A1
:10468000AD01882349F48091AE01882329F48091FB
:10469000AF01882309F474C02F3F19F02F5F2093D6
:1046A000B001191624F40E94D8208093AC018091A7
:1046B000AC0187FF05C00E94D82081958093AC0192
:1046C0008091AD01181624F40E94D8208093AD018A
:1046D0008091AD0187FF05C00E94D820819580930D
:1046E000AD016091AC01662339F11091AD01112348
:1046F00019F1772767FD7095872F972F0E94122B4E
:1047000023E333E343E35FE30E94762B0E94DF2A37
:104710006093AC01612F772767FD7095872F972FE6
:104720000E94122B23E333E343E35FE30E94762BE3
:104730000E94DF2A6093AD018091AE01181624F427
:104740000E9420218093AE018091AE0187FF05C0B9
:104750000E94202181958093AE018091AF011816AF
:1047600024F40E9420218093AF018091AF0187FF44
:1047700005C00E94202181958093AF010E945122A3
:104780001F91089580E0089580E0089588EB98E0F7
:104790000E94470608958CE399E00E94470600D0E6
:1047A00000D000D0EDB7FEB731968EEE98E0ADB7F1
:1047B000BEB712969C938E93119785E090E09383F9
:1047C000828381E090E0958384830E94E0068DB728
:1047D0009EB706960FB6F8949EBF0FBE8DBF089584
:1047E000833009F452C0843030F4813071F082306B
:1047F00009F0DAC02AC0853009F487C0853008F492
:1048000064C0863009F0D0C0A8C020910F01822F6B
:1048100090E0860F911D8F3F910520F4260F209385
:104820000F0103C08FEF80930F0100D000D0EDB7D0
:10483000FEB731968DE59BE0ADB7BEB712969C935F
:104840008E93119780910F017FC020911001822FCC
:1048500090E0860F911D8F3F910520F4260F209345
:10486000100103C08FEF8093100100D000D0EDB78E
:10487000FEB731968BE49BE0ADB7BEB712969C9322
:104880008E931197809110015FC020911101822FAA
:1048900090E0860F911D8F3F910520F4260F209305
:1048A000110103C08FEF8093110100D000D0EDB74C
:1048B000FEB7319688E39BE0ADB7BEB712969C93E6
:1048C0008E931197809111013FC020911201822F88
:1048D00090E0860F911D8F3F910520F4260F2093C5
:1048E000120103C08FEF8093120100D000D0EDB70A
:1048F000FEB7319683E29BE0ADB7BEB712969C93AC
:104900008E931197809112011FC020911301822F65
:1049100090E0860F911D8F3F910520F4260F209384
:10492000130103C08FEF8093130100D000D0EDB7C7
:10493000FEB731968AE09BE0ADB7BEB712969C9366
:104940008E93119780911301828313820E94E00657
:104950000F900F900F900F90089520911401822FC7
:1049600090E0860F911D8F3F910520F4260F209334
:10497000140103C08FEF8093140100D000D0EDB775
:10498000FEB731968FEE9AE0ADB7BEB712969C9304
:104990008E93119780911401828313820E94E00606
:1049A0000F900F900F900F900895833009F446C038
:1049B000843030F4813071F0823009F0B6C024C008
:1049C000853009F46FC0853008F452C0863009F094
:1049D000ACC08AC080910F01681720F4861B8093B9
:1049E0000F0102C010920F0100D000D0EDB7FEB74A
:1049F00031968AED9BE0ADB7BEB712969C938E932D
:104A0000119780910F0167C080911001681720F401
:104A1000861B8093100102C01092100100D000D0BC
:104A2000EDB7FEB7319688EC9BE0ADB7BEB71296F6
:104A30009C938E931197809110014DC0809111012C
:104A4000681720F4861B8093110102C01092110197
:104A500000D000D0EDB7FEB7319685EB9BE0ADB747
:104A6000BEB712969C938E9311978091110133C01B
:104A700080911201681720F4861B8093120102C0F6
:104A80001092120100D000D0EDB7FEB7319680EA47
:104A90009BE0ADB7BEB712969C938E931197809111
:104AA000120119C080911301681720F4861B8093AE
:104AB000130102C01092130100D000D0EDB7FEB771
:104AC000319687E89BE0ADB7BEB712969C938E9364
:104AD000119780911301828313820E94E0060F9048
:104AE0000F900F900F90089580911401681720F493
:104AF000861B8093140102C01092140100D000D0D4
:104B0000EDB7FEB731968CE69BE0ADB7BEB7129617
:104B10009C938E93119780911401828313820E943B
:104B2000E0060F900F900F900F9008951F93182F8D
:104B300000D000D0EDB7FEB731968FED98E0ADB75D
:104B4000BEB712969C938E931197128313820E9484
:104B5000E0060F900F900F900F9061E070E080E002
:104B600090E004C0660F771F881F991F1A95D2F72F
:104B70000E94461B0E945A121F9108951F938B3169
:104B800009F463C28C3120F58E3009F479C28F307C
:104B900078F4873009F44AC2883020F4863009F06E
:104BA00039C323C28830B1F18B3009F033C317C247
:104BB000813109F417C3823120F4803109F02AC30E
:104BC00075C2863109F4A1C2893109F023C386C2B6
:104BD000853309F417C3863368F4873209F412C3A6
:104BE000883220F48E3108F415C30EC3893209F0DF
:104BF00011C308C3833438F48A3308F007C38833F9
:104C000009F008C3ECC1833409F4FCC2883409F00C
:104C100001C3FAC185EC96E00E94470683E098E064
:104C20000E9447060E94A82000D000D0EDB7FEB732
:104C3000319620E038E0ADB7BEB712963C932E9384
:104C40001197828313820E94E0060F900F900F90BD
:104C50000F908EEF97E00E9447060E94AD20182F1C
:104C60008BEE97E00E94470600D000D0EDB7FEB76C
:104C7000319686EE97E0ADB7BEB712969C938E93B1
:104C80001197128313820E94E0060F900F900F90ED
:104C90000F9084EE97E00E9447068AED97E00E940D
:104CA000470600D000D0EDB7FEB7319687ED97E00C
:104CB000ADB7BEB712969C938E931197812F8170DA
:104CC000828313820E94E0060F900F900F900F9046
:104CD00085ED97E00E9447068BEC97E00E9447061F
:104CE00000D000D0EDB7FEB7319688EC97E0ADB7B5
:104CF000BEB712969C938E931197812F86958170E3
:104D0000828313820E94E0060F900F900F900F9005
:104D100086EC97E00E9447068AEB97E00E944706E0
:104D200000D000D0EDB7FEB7319687EB97E0ADB776
:104D3000BEB712969C938E93119716951695812F58
:104D40008170828313820E94E0060F900F900F9073
:104D50000F9085EB97E00E9447068CEA97E00E944F
:104D6000470600D000D0EDB7FEB7319689EA97E04C
:104D7000ADB7BEB712969C938E931197169511708E
:104D8000128313820E94E0060F900F900F900F90F5
:104D900087EA97E00E9447060E94A320182F83E924
:104DA00097E00E94470600D000D0EDB7FEB73196DD
:104DB0008EE897E0ADB7BEB712969C938E9311978D
:104DC000128313820E94E0060F900F900F900F90B5
:104DD0008CE897E00E94470683E797E00E94470629
:104DE00000D000D0EDB7FEB7319680E797E0ADB7C1
:104DF000BEB712969C938E931197812F81708283F8
:104E000013820E94E0060F900F900F900F908EE695
:104E100097E00E94470687E597E00E94470600D08A
:104E200000D0EDB7FEB7319684E597E0ADB7BEB7D9
:104E300012969C938E931197812F86958170828311
:104E400013820E94E0060F900F900F900F9082E562
:104E500097E00E94470680E497E00E94470600D052
:104E600000D0EDB7FEB731968DE397E0ADB7BEB792
:104E700012969C938E931197812F869586958170BB
:104E8000828313820E94E0060F900F900F900F9084
:104E90008BE397E00E94470689E297E00E9447066D
:104EA00000D000D0EDB7FEB7319686E297E0ADB7FF
:104EB000BEB712969C938E931197812F86958695F7
:104EC00086958170828313820E94E0060F900F9076
:104ED0000F900F9084E297E00E9447068AE197E0E6
:104EE0000E94470600D000D0EDB7FEB7319687E1AB
:104EF00097E0ADB7BEB712969C938E931197812F12
:104F000082958170828313820E94E0060F900F9039
:104F10000F900F9085E197E00E94470683E097E0AD
:104F20000E94470600D000D0EDB7FEB7319680E072
:104F300097E0ADB7BEB712969C938E931197812FD1
:104F4000829586958170828313820E94E0060F907D
:104F50000F900F900F908EEF96E00E94470682EE22
:104F600096E00E94470600D000D0EDB7FEB731961C
:104F70008FED96E0ADB7BEB712969C938E931197C6
:104F80001295169516951370812F81708283138266
:104F90000E94E0060F900F900F900F908DED96E01D
:104FA0000E94470685ED96E00E94470600D000D09B
:104FB000EDB7FEB7319682ED96E0ADB7BEB712966B
:104FC0009C938E9311971695128313820E94E0068C
:104FD0000F900F900F900F9080ED96E002C083E14C
:104FE00098E00E94470681E01AC18091A501807F68
:104FF0008093A5010E94C62381EC96E00E9447069B
:1050000081E08093B4010BC10E945A1280EB96E0BC
:105010000E94470680E197E220E931E0F9013197EB
:10502000F1F70197D9F70E94771DDDCF8091A50197
:1050300080FF08C083EA96E00E9447068091A501A0
:10504000807F18C087E996E010C08091A501982F55
:10505000969590959170292F220F8D7F822B8093AA
:10506000A501992351F08AE896E00E9447068091B5
:10507000A50181608093A501B6CF8CE796E0B1CF02
:105080008091A501982F9695969590959170292FCE
:10509000220F220F8B7F822B8093A501992319F079
:1050A0008DE696E0E2CF8DE596E09BCF8091A5015D
:1050B000982F96959695969590959170292F220FF9
:1050C000220F220F877F822B8093A501992319F04D
:1050D00081E596E0CACF84E496E083CF85E396E04D
:1050E0000E94470687E096E00E94470682ED95E021
:1050F0000E94470685EA95E00E94470680E695E013
:105100000E94470685E395E06CCF87E295E00E9418
:1051100047060E94901000D000D0EDB7FEB7319640
:105120002DE035E0ADB7BEB712963C932E931197A4
:10513000828313820E94E006EDB7FEB7319686EFB8
:1051400094E0ADB7BEB712969C938E931197809161
:105150000101828313820E94E006EDB7FEB731960B
:1051600083EE94E0ADB7BEB712969C938E931197E1
:1051700080912C01828313820E94E006EDB7FEB776
:10518000319680ED94E0ADB7BEB712969C938E93A6
:10519000119780910C01828313820E94E0060F9088
:1051A0000F900F900F900E94191D00D000D000D0DA
:1051B00029EB34E0EDB7FEB732832183ADB7BEB73C
:1051C00013966D937D938D939C9316970E94E006A2
:1051D00081E0EDB7FEB736960FB6F894FEBF0FBE6E
:1051E000EDBF1DC00E945A1280910C0191E08927E9
:1051F00080930C01882319F08FEA94E0F2CE84EAC0
:1052000094E0EFCE80E003C08D5101C089530E942D
:105210009625E9CE82EA94E00E94470680E01F913D
:1052200008951F93182F8091B401813079F0813057
:1052300020F0823009F0BEC148C0E0910D01F0912C
:105240000E018081823209F0B7C107C0E0910D01E3
:10525000F0910E018081823249F4812F0E94C22395
:10526000882349F5812F0E94BE25A7C1812F0E9466
:10527000C423882301F5143191F0153128F41B3033
:1052800039F01031D9F40EC0193249F01833B1F4A5
:105290000E94C62384EE98E00E9447060CC010923C
:1052A000B40110C00E94CB238AEE98E00E9447060A
:1052B00082E08093B40181E090E07FC188EE98E0C5
:1052C0000E94470680E090E078C1143288F41E31D5
:1052D00008F0F2C01B3009F11C3020F4173009F03F
:1052E00045C12DC1133159F1143109F03FC118C026
:1052F0001B3409F418C11C3430F4193289F0183306
:1053000009F034C10AC0113509F409C1123509F494
:1053100002C11E3409F02AC10CC10E94CB2329C14D
:105320008091B501882319F01092B50122C18FE454
:105330009AE00E94470681E08093B4013EC181EE6D
:105340009AE00E9447068FEC9AE00E94470600D040
:1053500000D0EDB7FEB731968CEC9AE0ADB7BEB792
:1053600012969C938E93119780910F0182831382E2
:105370000E94E0060F900F900F900F908AEC9AE039
:105380000E94470688EB9AE00E94470600D000D0B2
:10539000EDB7FEB7319685EB9AE0ADB7BEB7129682
:1053A0009C938E93119780911001828313820E94A7
:1053B000E0060F900F900F900F9083EB9AE00E9401
:1053C000470684EA9AE00E94470600D000D0EDB775
:1053D000FEB7319681EA9AE0ADB7BEB712969C93BC
:1053E0008E93119780911101828313820E94E006AF
:1053F0000F900F900F900F908FE99AE00E94470650
:105400008EE89AE00E94470600D000D0EDB7FEB7C4
:1054100031968BE89AE0ADB7BEB712969C938E9307
:10542000119780911201828313820E94E0060F90EF
:105430000F900F900F9089E89AE00E94470684E74A
:105440009AE00E94470600D000D0EDB7FEB7319633
:1054500081E79AE0ADB7BEB712969C938E931197F1
:1054600080911301828313820E94E0060F900F90B7
:105470000F900F908FE69AE00E94470688E59AE029
:105480000E94470600D000D0EDB7FEB7319685E503
:105490009AE0ADB7BEB712969C938E931197809108
:1054A0001401828313820E94E0060F900F900F90E8
:1054B0000F9083E59AE057C01232F9F0133260F48E
:1054C0001F3199F0103218F41E3109F510C0103256
:1054D00081F01132E1F40FC0143299F0143278F0F7
:1054E000153289F0163299F410C082E011C081E0C3
:1054F0000FC083E00DC084E00BC085E009C086E0EA
:1055000007C087E005C088E003C089E001C080E0F3
:105510008093B5012EC08091B50161E007C08091F4
:10552000B50161E009C08091B5016AE00E94F023F5
:1055300020C08091B5016AE00E94D5241AC08EE196
:1055400080930F0182E3809310018AE08093110120
:1055500084E18093120188E08093130188E28093B4
:10556000140182E49AE00E94470603C080E49AE0B6
:105570001DC02091B5012223B9F000D000D0EDB7B5
:10558000FEB731968AE39AE0ADB7BEB712969C9308
:105590008E931197228313820E94E00681E00F9080
:1055A0000F900F900F9009C087E39AE00E94470682
:1055B00081E003C01092B40180E01F91089504D0EF
:1055C0006894B1118DC0089570D088F09F5790F005
:1055D000B92F9927B751A0F0D1F0660F771F881F18
:1055E000991F1AF0BA95C9F712C0B13081F077D07F
:1055F000B1E0089574C0672F782F8827B85F39F01D
:10560000B93FCCF3869577956795B395D9F73EF476
:1056100090958095709561957F4F8F4F9F4F08951E
:10562000E89409C097FB3EF490958095709561953C
:105630007F4F8F4F9F4F9923A9F0F92F96E9BB27F2
:105640009395F695879577956795B795F111F8CF6E
:10565000FAF4BB0F11F460FF1BC06F5F7F4F8F4FD9
:105660009F4F16C0882311F096E911C0772321F0CF
:105670009EE8872F762F05C0662371F096E8862F67
:1056800070E060E02AF09A95660F771F881FDAF7BE
:10569000880F9695879597F9089557FD9058440F70
:1056A000551F59F05F3F71F04795880F97FB991F81
:1056B00061F09F3F79F0879508951216130614063E
:1056C000551FF2CF4695F1DF08C0161617061806CB
:1056D000991FF1CF86957105610508940895E894A6
:1056E000BB2766277727CB0197F908950BD078C0A1
:1056F00069D028F06ED018F0952309F05AC05FC029
:105700001124EECFCADFA0F3959FD1F3950F50E09F
:10571000551F629FF001729FBB27F00DB11D639F63
:10572000AA27F00DB11DAA1F649F6627B00DA11D09
:10573000661F829F2227B00DA11D621F739FB00DAF
:10574000A11D621F839FA00D611D221F749F33271F
:10575000A00D611D231F849F600D211D822F762FB8
:105760006A2F11249F5750408AF0E1F088234AF0B5
:10577000EE0FFF1FBB1F661F771F881F9150504001
:10578000A9F79E3F510570F014C0AACF5F3FECF31C
:10579000983EDCF3869577956795B795F795E795ED
:1057A0009F5FC1F7FE2B880F911D9695879597F9FE
:1057B000089597F99F6780E870E060E008959FEF93
:1057C00080EC089500240A94161617061806090698
:1057D000089500240A941216130614060506089567
:1057E000092E0394000C11F4882352F0BB0F40F4EF
:1057F000BF2B11F460FF04C06F5F7F4F8F4F9F4F2F
:105800000895991B79E004C0991F961708F0961B1C
:10581000881F7A95C9F78095089597FB092E07266A
:105820000AD077FD04D00CD006D000201AF4709571
:1058300061957F4F0895F6F7909581959F4F089554
:10584000AA1BBB1B51E107C0AA1FBB1FA617B707A6
:1058500010F0A61BB70B881F991F5A95A9F78095C2
:105860009095BC01CD010895F999FECF92BD81BDFF
:10587000F89A992780B50895A8E1B0E042E050E099
:105880000C94572C262FF999FECF1FBA92BD81BDDB
:1058900020BD0FB6F894FA9AF99A0FBE01960895B2
:1058A0000E94422C272F0C94432CDC01CB01FC01DD
:1058B000F999FECF06C0F2BDE1BDF89A319600B469
:0E58C0000D9241505040B8F70895F894FFCF74
:1058CE0005019F089B0975093F0909090192011EEF
:0658DE00320A1408280044
:00000001FF
